{
  "contractName": "FlightSuretyData",
  "abi": [
    {
      "inputs": [],
      "payable": false,
      "stateMutability": "nonpayable",
      "type": "constructor"
    },
    {
      "anonymous": false,
      "inputs": [
        {
          "indexed": false,
          "internalType": "address",
          "name": "caller",
          "type": "address"
        }
      ],
      "name": "AuthorizedCaller",
      "type": "event"
    },
    {
      "anonymous": false,
      "inputs": [
        {
          "indexed": false,
          "internalType": "address",
          "name": "passenger",
          "type": "address"
        },
        {
          "indexed": false,
          "internalType": "string",
          "name": "flight",
          "type": "string"
        },
        {
          "indexed": false,
          "internalType": "uint256",
          "name": "amount",
          "type": "uint256"
        }
      ],
      "name": "CreditInsured",
      "type": "event"
    },
    {
      "anonymous": false,
      "inputs": [
        {
          "indexed": false,
          "internalType": "address",
          "name": "caller",
          "type": "address"
        }
      ],
      "name": "DeAuthorizedCaller",
      "type": "event"
    },
    {
      "anonymous": false,
      "inputs": [
        {
          "indexed": true,
          "internalType": "address",
          "name": "account",
          "type": "address"
        }
      ],
      "name": "RegisterAirline",
      "type": "event"
    },
    {
      "anonymous": false,
      "inputs": [
        {
          "indexed": true,
          "internalType": "string",
          "name": "account",
          "type": "string"
        }
      ],
      "name": "RegisterFlight",
      "type": "event"
    },
    {
      "payable": true,
      "stateMutability": "payable",
      "type": "fallback"
    },
    {
      "constant": true,
      "inputs": [],
      "name": "isOperational",
      "outputs": [
        {
          "internalType": "bool",
          "name": "",
          "type": "bool"
        }
      ],
      "payable": false,
      "stateMutability": "view",
      "type": "function"
    },
    {
      "constant": false,
      "inputs": [
        {
          "internalType": "bool",
          "name": "mode",
          "type": "bool"
        }
      ],
      "name": "setOperatingStatus",
      "outputs": [],
      "payable": false,
      "stateMutability": "nonpayable",
      "type": "function"
    },
    {
      "constant": true,
      "inputs": [],
      "name": "registerAirline",
      "outputs": [],
      "payable": false,
      "stateMutability": "pure",
      "type": "function"
    },
    {
      "constant": false,
      "inputs": [],
      "name": "buy",
      "outputs": [],
      "payable": true,
      "stateMutability": "payable",
      "type": "function"
    },
    {
      "constant": true,
      "inputs": [],
      "name": "creditInsurees",
      "outputs": [],
      "payable": false,
      "stateMutability": "pure",
      "type": "function"
    },
    {
      "constant": true,
      "inputs": [],
      "name": "pay",
      "outputs": [],
      "payable": false,
      "stateMutability": "pure",
      "type": "function"
    },
    {
      "constant": false,
      "inputs": [],
      "name": "fund",
      "outputs": [],
      "payable": true,
      "stateMutability": "payable",
      "type": "function"
    }
  ],
  "bytecode": "0x60806040526001600060146101000a81548160ff02191690831515021790555034801561002b57600080fd5b50336000806101000a81548173ffffffffffffffffffffffffffffffffffffffff021916908373ffffffffffffffffffffffffffffffffffffffff1602179055506102738061007b6000396000f3fe6080604052600436106100705760003560e01c806363e29a3f1161004e57806363e29a3f146100e5578063a6f2ae3a146100fc578063b60d428814610106578063cd905dff1461011057610070565b8063110466ed1461007a5780631b9265b8146100b757806336cee484146100ce575b61007861013f565b005b34801561008657600080fd5b506100b56004803603602081101561009d57600080fd5b81019080803515159060200190929190505050610141565b005b3480156100c357600080fd5b506100cc610220565b005b3480156100da57600080fd5b506100e3610222565b005b3480156100f157600080fd5b506100fa610224565b005b610104610226565b005b61010e61013f565b005b34801561011c57600080fd5b50610125610228565b604051808215151515815260200191505060405180910390f35b565b6000809054906101000a900473ffffffffffffffffffffffffffffffffffffffff1673ffffffffffffffffffffffffffffffffffffffff163373ffffffffffffffffffffffffffffffffffffffff1614610203576040517f08c379a000000000000000000000000000000000000000000000000000000000815260040180806020018281038252601c8152602001807f43616c6c6572206973206e6f7420636f6e7472616374206f776e65720000000081525060200191505060405180910390fd5b80600060146101000a81548160ff02191690831515021790555050565b565b565b565b565b60008060149054906101000a900460ff1690509056fea265627a7a7231582039ea8cb0dfbca026b15152d4743587f562d53c3c2775b81ce88a087c20c28f2864736f6c63430005110032",
  "source": "// changed the ^ to be >= to be less restrictive and allow other versions of solidity >=0.4.25\npragma solidity >=0.4.25;\n\nimport \"../node_modules/openzeppelin-solidity/contracts/math/SafeMath.sol\";\n\ncontract FlightSuretyData {\n    using SafeMath for uint256;\n\n/********************************************************************************************/\n/* DATA VARIABLES                                     */\n/********************************************************************************************/\n\n    // Account used to deploy contract\n    address private contractOwner;\n    // Blocks all state changes throughout the contract if false\n    bool private operational = true;\n    // Add mapping like in FlightSuretyApp.sol\n    // mapping(address => bool) private authorizedCallers;\n    struct Flight {\n        string flightName;\n        address airline;\n        uint8 statusCode;\n        uint256 timestamp;\n    }\n    struct Airline {\n        bool isRegistered;      // Flag for testing existence in mapping\n        address account;        // Ethereum account\n        uint256 ownership;      // Track percentage of Smart Contract ownership based on initial contribution\n    }\n\n    struct Insurance {\n        address passenger;\n        uint256 insuranceAmount;\n    }\n\n    mapping(address => uint8) authorizedCaller;\n    mapping(address => Airline) airlines;   // All registered airlines\n    mapping(string => Flight) flights;\n    mapping(string => address[]) flightInsurees;\n    mapping(address => uint256) funds;\n    mapping(bytes32 => uint256) flightSurety;\n\n/********************************************************************************************/\n/*  EVENT DEFINITIONS                  */\n/********************************************************************************************/\n\n    event AuthorizedCaller(address caller);\n    event DeAuthorizedCaller(address caller);\n    event CreditInsured(address passenger, string flight, uint256 amount);\n    event RegisterAirline   // Event fired when a new Airline is registered\n    (\n        address indexed account     // \"indexed\" keyword indicates that the data should be\n    // stored as a \"topic\" in event log data. This makes it\n    // searchable by event log filters. A maximum of three\n    // parameters may use the indexed keyword per event.\n    );\n    event RegisterFlight   // Event fired when a new Airline is registered\n    (\n        string indexed account     // \"indexed\" keyword indicates that the data should be\n    // stored as a \"topic\" in event log data. This makes it\n    // searchable by event log filters. A maximum of three\n    // parameters may use the indexed keyword per event.\n    );\n    /**\n    * @dev Constructor\n    *      The deploying account becomes contractOwner\n    */\n    constructor()\n    public {\n        contractOwner = msg.sender;\n        // contractOwner is a part of the airline owner, whether the airline paid, and starting from 0\n        // airlines[contractOwner] = Airline(contractOwner, AirlineState.Paid, \"First Airline\", 0);\n        //\n        // totalPaidAirlines++;\n    }\n\n    \n\n\n\n/********************************************************************************************/\n/* FUNCTION MODIFIERS                                 */\n/********************************************************************************************/\n\n    // Modifiers help avoid duplication of code. They are typically used to validate something\n    // before a function is allowed to be executed.\n\n    /**\n    * @dev Modifier that requires the \"operational\" boolean variable to be \"true\"\n    *      This is used on all state changing functions to pause the contract in\n    *      the event there is an issue that needs to be fixed\n    */\n\n\n    modifier requireIsOperational() {\n        require(operational, \"Contract is currently not operational\");\n        _;  // All modifiers require an \"_\" which indicates where the function body will be added\n    }\n\n    /**\n    * @dev Modifier that requires the \"ContractOwner\" account to be the function caller\n    */\n    modifier requireContractOwner() {\n        require(msg.sender == contractOwner, \"Caller is not contract owner\");\n        _;\n    }\n\n\n\n/********************************************************************************************/\n/*  UTILITY FUNCTIONS                                  */\n/********************************************************************************************/\n\n    /**\n    * @dev Retrieve operating status from the contract\n    */\n    function isOperational()\n        public\n        view\n        returns (bool) {\n        // Using return operational = a boolean that indicates the current operating status\n        return operational;\n    }\n\n    /**\n    * @dev This function turns the contract operations on or off\n    */\n    function setOperatingStatus(\n        bool mode)\n        external requireContractOwner {\n        // If opertional mode is disabled, all write transactions except this one here will fail when run and not work...\n        operational = mode;\n    }\n\n\n/********************************************************************************************/\n/*  SMART CONTRACT FUNCTIONS LIST                                 */\n/********************************************************************************************/\n\n// Need to list out the actual functions of FlightSuretyApp.sol so it knows what to do...this goes here:\n\n    /**\n    * @dev This function adds an airline to the registration queue (called only from FlightSuretyApp)\n    */\n    function registerAirline()\n        external\n        pure\n    {\n    }\n\n    /**\n    * @dev This function allows for buying insurance for flights\n    */\n    function buy()\n        external\n        // we make this function payable so that it can work as a finance/wallet function\n        payable\n    {\n    }\n\n    /**\n    * @dev This function credits payment/payout to the people who bought insurance\n    */\n    function creditInsurees()\n        external\n        // Note: this isn't a payable function, it's pure\n        pure\n    {\n    }\n\n    /**\n    * @dev This function sends payment/payout from the company to the person who bought insurance\n    */\n    function pay()\n        external\n        // Note: this isn't a payable function, it's pure\n        pure\n    {\n    }\n\n    /**\n    * @dev This function serves as a call for the initial funding for insurance\n    */\n    function fund()\n        public\n        // we make this function payable so that it can work as a finance/wallet function\n        payable\n    {\n    }\n\n    /**\n    * @dev This function serves as a call for the Flight Key (see: bytes32 of FlightSuretyApp)\n    */\n    function getFlightKey(\n        address airline,\n        string memory flight,\n        uint256 timestamp\n        )\n        internal\n        pure\n        returns(bytes32)\n    {\n        return keccak256(abi.encodePacked(airline, flight, timestamp));\n    }\n\n\n    /**\n    * @dev This function serves a fallback in order to fund smart contracts\n    */\n    function()\n        external\n        payable\n    {\n        fund();\n    }\n\n}\n\n/********************************************************************************************/\n/* INITIAL TRIAL CODE (KEPT FOR REFERENCE FROM FIRST TRY)                                   */\n/********************************************************************************************/\n\n/*\n    /**\n    * @dev Modifier that requires the \"authorizedCallers\" to determine if that caller is authorized\n    */\n    /*\n    modifier requireCallerAuthorized() {\n        require(authorizedCallers[msg.sender] || (msg.sender == contractOwner), \"This caller is unfortunately not authorized for this.\");\n        _;\n    }\n\n\n    function()\n    external payable\n    {\n    }\n\n\n    function setCallerAuthorizationStatus(address caller, bool status) external requireContractOwner\n    returns (bool) {\n        authorizedCallers[caller] = status;\n        return authorizedCallers[caller];\n    }\n\n    function getCallerAuthorizationStatus(address caller) public view requireContractOwner\n    returns (bool) {\n        return authorizedCallers[caller];\n    }\n\n    /*\n\n\n\n// Declare AirlineState with three states : applied, registered, paid\nenum AirlineState {\n    Applied,\n    Registered,\n    Paid\n}\n\n/* Struct is for the airline which has three components:\n1. Address\n2. State\n3. Name */\n\n/*\nstruct Airline {\n    address airlineAddress;\n    AirlineState state;\n    string name;\n\n    // Add in mapping again, just like in FlightSuretyApp.sol\n    mapping(address => bool) approvals;\n    uint8 approvalCount;\n}\n\n// Add in mapping again, just like in FlightSuretyApp.sol\nmapping(address => Airline) internal airlines;\nuint256 internal totalPaidAirlines = 0;\n\n/* Create a set of 5 functions that:\n1. getAirlineState() = this is to establish the state of each airline\n2. createAirline() = this is to create the airline for the potential insurance pool\n3. updateAirlineState() = this is to this is to update the DApp about which of the airlines paid/didn't pay\n4. getTotalPaidAirlines() = this is to establish which of the airlines paid and are in the pool\n5. approveAirlineRegistration() = this is to confirm and allow the paid airline to be in the insurance pool of the DApp\n*/\n\n/*\n// 1. getAirlineState() = this is to establish the state of each airline\nfunction getAirlineState(address airline) external view\nrequireCallerAuthorized\nreturns (AirlineState) {\n    return airlines[airline].state;\n}\n\n// 2. createAirline() = this is to create the airline for the potential insurance pool\nfunction createAirline(address airlineAddress, uint8 state, string name) external\nrequireCallerAuthorized {\n    airlines[airlineAddress] = Airline(airlineAddress, AirlineState(state), name, 0);\n}\n\n// 3. updateAirlineState() = this is to this is to update the DApp about which of the airlines paid/didn't pay\nfunction updateAirlineState(address airlineAddress, uint8 state) external\nrequireCallerAuthorized {\n    airlines[airlineAddress].state = AirlineState(state);\n    if (state == 2) totalPaidAirlines++;\n}\n\n// NOTE: added to connect with FlightSuretyApp.sol\nfunction updateAirlineState(address airlineAddress, uint8 state) external view\nrequireCallerAuthorized\nreturns (uint8) {\n    return AirlineState;\n}\n\n// 4. getTotalPaidAirlines() = this is to establish which of the airlines paid and are in the pool\nfunction getTotalPaidAirlines() external view\nrequireCallerAuthorized\nreturns (uint256) {\n    return totalPaidAirlines;\n}\n\n// 5. approveAirlineRegistration() = this is to confirm and allow the paid airline to be in the insurance pool of the DApp\nfunction approveAirlineRegistration(address airline, address approver) external requireCallerAuthorized\nreturns (uint8) {\n    require(!airlines[airline].approvals[approver], \"Caller has already given approval\");\n    airlines[airline].approvals[approver] = true;\n    airlines[airline].approvalCount++;\n\n    return airlines[airline].approvalCount;\n}\n\n*/",
  "sourcePath": "/home/blockchain05/workspace/FlightSurety/contracts/FlightSuretyData.sol",
  "compiler": {
    "name": "solc",
    "version": "0.5.17+commit.d19bba13.Emscripten.clang"
  },
  "schemaVersion": "3.2.0",
  "updatedAt": "2022-05-30T23:06:11.954Z",
  "networkType": "ethereum",
  "devdoc": {
    "methods": {
      "buy()": {
        "details": "This function allows for buying insurance for flights"
      },
      "constructor": {
        "details": "Constructor     The deploying account becomes contractOwner"
      },
      "creditInsurees()": {
        "details": "This function credits payment/payout to the people who bought insurance"
      },
      "fund()": {
        "details": "This function serves as a call for the initial funding for insurance"
      },
      "isOperational()": {
        "details": "Retrieve operating status from the contract"
      },
      "pay()": {
        "details": "This function sends payment/payout from the company to the person who bought insurance"
      },
      "registerAirline()": {
        "details": "This function adds an airline to the registration queue (called only from FlightSuretyApp)"
      },
      "setOperatingStatus(bool)": {
        "details": "This function turns the contract operations on or off"
      }
    }
  },
  "userdoc": {
    "methods": {}
  }
}